:020000040800F2
:1000000030130020B9030008391F00083B1F000807
:100010003F1F0008431F0008471F000800000000A2
:100020000000000000000000000000004B1F00085E
:100030004D1F0008000000004F1F00086B1F000844
:10004000D3030008D3030008D3030008D303000838
:10005000D3030008D3030008D3030008D303000828
:10006000D3030008D3030008D3030008D303000818
:10007000D3030008D3030008D3030008D303000808
:10008000D3030008D3030008D3030008D3030008F8
:10009000D3030008D3030008D3030008D3030008E8
:1000A000D3030008D3030008D3030008D3030008D8
:1000B00001120008D3030008D3030008D30300088B
:1000C000D3030008D3030008D3030008D3030008B8
:1000D000D303000807190008471A0008D3030008D3
:1000E000D3030008D3030008D303000800F002F88C
:1000F00000F062F80AA090E8000C82448344AAF160
:100100000107DA4501D100F057F8AFF2090EBAE85D
:100110000F0013F0010F18BFFB1A43F0010318473B
:10012000AC790000CC7900000A444FF0000C10F8C4
:10013000013B13F0070408BF10F8014B1D1108BF65
:1001400010F8015B641E05D010F8016B641E01F805
:10015000016BF9D113F0080F1EBF10F8014BAD1C55
:100160000C1B09D16D1E58BF01F801CBFAD505E073
:1001700014F8016B01F8016B6D1EF9D59142D6D3CD
:10018000704700000023002400250026103A28BFF5
:1001900078C1FBD8520728BF30C148BF0B607047F9
:1001A000642905F0C187782905F0FA870020704797
:1001B0001FB51FBD10B510BD06F00EF91146FFF7B3
:1001C000F7FF01F0EFFD06F02CF903B4FFF7F2FFA3
:1001D00003BC01F0BFFA00000CB5002001900090B4
:1001E0006C48006840F480306A49086000BF694884
:1001F000006800F4003000900198401C01900098C5
:1002000018B90198B0F5A06FF1D16248006800F408
:10021000003010B10120009001E000200090009813
:10022000012843D15C48006840F010005A4908603A
:100230000846006820F0030008600846006840F0A7
:1002400002000860534840685249486008464068C8
:1002500048600846406840F480604860084640684E
:1002600020F47C1048600846406840F4E81048607C
:100270000846006840F08070086000BF454800688C
:1002800000F000700028F9D04248406820F00300D8
:10029000404948600846406840F00200486000BF9E
:1002A0003C48406800F00C000828F9D10CBD10B59E
:1002B000FFF792FF10BD10B53648006840F001000E
:1002C000344908600846406834490840314948606C
:1002D00008460068324908402E4908600846006810
:1002E00020F4802008600846406820F4FE00486042
:1002F0004FF41F008860FFF7DAFF4FF000602949D4
:10030000086010BD10B5002100200022214B5B6861
:1003100003F00C0121B1042906D0082928D107E0F7
:10032000214B224C236027E01F4B204C236023E00D
:10033000184B5B6803F47010164B5B6803F4803253
:10034000022303EB904022B9194B4343174C23601F
:100350000DE0104B5B6803F4003323B1144B4343AF
:10036000124C236003E0104B4343104C236003E026
:100370000D4B0E4C236000BF00BF064B5B68C3F300
:1003800003130C4CE15C094B1B68CB40074C23600A
:1003900010BD000000100240002002400000FFF8E5
:1003A000FFFFF6FE08ED00E000127A0000000020DA
:1003B00000093D0004000020094880470948004723
:1003C000FEE7FEE7FEE7FEE7FEE7FEE7FEE7FEE705
:1003D000FEE7FEE704480549054A064B7047000062
:1003E000B7020008ED000008300D00203013002097
:1003F000300F0020300F002010B504464FF0E020F1
:10040000006920F004004FF0E0210861E11704EBDF
:100410005171C1F3C7011A4A11701046007800EB00
:100420004001C1EBC0104FF6FF7101EAC000154951
:10043000088015A005F038FE10BD70B5044601F027
:100440009AFD054600BF01F096FD401B04EB4401F8
:10045000C1EBC411B0EBC10FF5D370BD70B504464C
:1004600001F089FD054600BF01F085FD401BA0425B
:10047000FAD370BD002100E0491C8142FCD37047D3
:10048000140000201600002044656C617920667518
:100490006E6374696F6E20696E697420737563632F
:1004A0006573732E2E2E0D0A0000000008B5012181
:1004B000102004F047FA4FF46040ADF8000014201B
:1004C0008DF8030002208DF8020069466E4803F0A3
:1004D0007DFF0121042004F035FA4FF48070ADF85F
:1004E000000010208DF8030002208DF802006946FC
:1004F000664803F06BFF6648406840F0007064494E
:1005000048604914604804F00EF84FF480415E489A
:1005100004F009F84FF400415B4804F004F84FF48C
:100520000041594803F0FFFF08BD10B55948007855
:1005300000F0010028B14FF40051534803F0F5FFDB
:1005400004E04FF40051504803F0EDFF51480078AB
:10055000C0F3400028B14FF480414B4803F0E5FF61
:1005600004E04FF48041484803F0DDFF494800783B
:10057000C0F3800028B14FF40041434803F0D5FF99
:1005800004E04FF40041404803F0CDFF41480078BB
:10059000C0F3C00028B14FF400413B4803F0C5FF51
:1005A00004E04FF40041384803F0BDFF10BD10B522
:1005B00039480078072862D2DFE800F004191D32BC
:1005C00048595D0034484088401C80B23249488018
:1005D000032801DB002048802F48408818B90320F9
:1005E0002C49087002E000202A49087047E00320E7
:1005F0002849087043E028484088401C80B22649BA
:100600004880032801DB002048802348408818B92F
:100610000F202049087002E000201E4908702EE0DB
:100620001D484088401C80B21B494880042801DBDB
:100630000020488018484088022803DA0C20154919
:10064000087002E003201349087018E0124840883F
:10065000401C80B210494880042801DB00204880FB
:100660000D488178012088400A49087007E00F2072
:100670000849087003E000200649087000BF00BF69
:10068000FFF753FF10BD00000010014000080140BB
:10069000000001401C0000201800002001207047CD
:1006A00038B50446032302226B21D020009400F0C9
:1006B0003DFD38BD10B5012307226B21D02000F08D
:1006C0006AFD10BD38B50446022304221B21D02048
:1006D000009400F02BFD38BD38B5044602230422F7
:1006E0001C21D020009400F021FD38BD10B5044637
:1006F000234606226B21D02000F04DFD10BD10B521
:10070000F84B01227521D02000F0A4FCF5480078B8
:1007100010BD10B5FFF7F3FF682801D1012010BD0F
:100720000020FCE710B50446234605226A21D020AC
:1007300000F031FD10BD10B50446234601223721DB
:10074000D02000F028FD10BD10B5FFF7E2FF10B17A
:10075000012808D103E0E4A005F0A6FC03E0E8A02E
:1007600005F0A2FC00BF00BF10BD10B580226B21B8
:10077000D02000F0D1FC3220FFF75FFE00221921CB
:10078000D02000F0C9FC03226B21D02000F0C4FC73
:1007900002223721D02000F0BFFC03221A21D020F2
:1007A00000F0BAFC0320FFF78DFF10221C21D0209F
:1007B00000F0B2FC10BD1CB504466B4606223B217E
:1007C000D02000F047FC9DF801009DF8001040EAA1
:1007D000012000B220809DF803009DF8021040EA3D
:1007E000012000B260809DF805009DF8041040EAE9
:1007F000012000B2A0801CBD1CB504466B46062239
:100800004321D02000F026FC9DF801009DF8001047
:1008100040EA012000B220809DF803009DF80210FC
:1008200040EA012000B260809DF805009DF80410A8
:1008300040EA012000B2A0801CBD38B50546002466
:1008400000BF13E035F81400000A8DF8000015F819
:1008500014008DF80100062000EB4400C1B26B4685
:100860000222D02000F02AFC601CC4B2032CE9DB79
:1008700038BD38B50546002400BF13E035F8140034
:10088000000A8DF8000015F814008DF801001320FF
:1008900000EB4400C1B26B460222D02000F00EFCF7
:1008A000601CC4B2032CE9DB38BD70B504460D46AC
:1008B000164604F01F040EB144F020040DB144F0BC
:1008C000400422466D21D02000F026FC70BD10B5FA
:1008D000044622466E21D02000F01EFC10BD10B54B
:1008E000804B01226F21D02000F0B4FB7D480078BE
:1008F00010BD10B57B4B02221321D02000F0AAFBC3
:10090000784840787749097840EA012000B210BD64
:1009100010B5744B02221521D02000F09BFB7148CA
:1009200040787049097840EA012000B210BD10B546
:100930006C4B02221721D02000F08CFB69484078D4
:100940006849097840EA012000B210BD2DE9F05F46
:1009500083460F4691461C46002211464846FFF743
:10096000A4FF2046FFF7B3FF002649E010257019C9
:10097000B84201DDB81BC5B2C4F58070A84201DAE7
:100980006042C5B20BEB060A53462A466F21D020BF
:1009900000F094FB0A9800B3002211464846FFF786
:1009A00084FF2046FFF793FF5C4B2A466F21D0203F
:1009B00000F050FB4FF000080DE01AF8080057490E
:1009C00011F80810884202D00020BDE8F09F08F11D
:1009D000010000F0FF08A845EFDB701986B260192E
:1009E000C4B2BE420CDA1CB909F1010000F0FF09E3
:1009F000002211464846FFF758FF2046FFF767FFE1
:100A0000BE42B3DB0120E0E72DE9FE4F05460F466D
:100A1000002436E02046611C8CB215F800A0204668
:100A2000611C8CB215F800B02046611C8CB22E5CA3
:100A3000002E0FDD05EB0408002001215B46524625
:100A4000CDE9001031464046FFF780FF0290A01923
:100A500084B211E02046611C8CB215F80090B9F107
:100A6000010F07D132223821D02000F055FB0120A0
:100A7000029001E000200290029810B90020BDE829
:100A8000FE8FBC42C6DB0120F9E72DE9FC4104469C
:100A90000D4616461F46DDF8208000203B463246B4
:100AA0002946CDE900802046FFF750FFBDE8FC81D4
:100AB00070B504460D46002229462046FFF7A4FFE4
:100AC00070BD10B5044622463821D02000F024FB2A
:100AD00010BD10B5044622461921D02000F01CFBA1
:100AE00010BD0000340200204D5055363035302006
:100AF0006E6F7420666F756E642E2E2E0D0A0000C8
:100B00004D50553630353020636865636B20737502
:100B100063636573732E2E2E0D0A0000C60200203B
:100B200038B50446032302221A21D020009400F095
:100B3000FDFA38BD38B50446032305221A21D0201A
:100B4000009400F0F3FA38BD10B504462246702137
:100B5000D02000F0E1FA10BD10B504462246712104
:100B6000D02000F0D9FA10BD10B50446234600226B
:100B70001146D02000F00FFB10BD10B50446200A2E
:100B80008E4908704C700B4602221321D02000F0D1
:100B900095FA10BD10B50446200A884908704C70BB
:100BA0000B4602221521D02000F088FA10BD10B5A6
:100BB0000446200A814908704C700B460222172116
:100BC000D02000F07BFA10BD10B5012302226A216B
:100BD000D02000F0E0FA10BD10B5784B022272214F
:100BE000D02000F037FA754840787449097840EA17
:100BF000012010BD10B5044622461F21D02000F070
:100C00008BFA10BD10B5044622462121D02000F0F9
:100C100083FA10BD10B5044622462021D02000F0F2
:100C20007BFA10BD10B5044622462221D02000F0E8
:100C300073FA10BD2DE9F04781460E4690461C46DA
:100C4000002211464046FFF730FE2046FFF73FFEE8
:100C5000002525E01027E819B04201DD701BC7B25E
:100C6000C4F58070B84201DA6042C7B209EB0503EF
:100C70003A466F21D02000F021FAE81985B2E01938
:100C8000C4B2B5420CDA1CB908F1010000F0FF084B
:100C9000002211464046FFF708FE2046FFF717FEE8
:100CA000B542D7DBBDE8F08770B504460D46234654
:100CB0002A467421D02000F0CDF970BD10B53A213C
:100CC000D02000F0A4F910BD10B504462346072239
:100CD0006A21D02000F05FFA10BD10B50021D020AD
:100CE00000F095F9044604F0010010BD10B5002194
:100CF000D02000F08CF9044604F03F04204610BDDB
:100D000038B50446E0B206231A4600210090D020F0
:100D100000F00CFA38BD10B50121D02000F077F9B1
:100D2000044604F03F04204610BD38B50446E0B246
:100D300006231A4601210090D02000F0F7F938BDB3
:100D400010B50221D02000F062F9044604F03F04FF
:100D5000204610BD38B50446E0B206231A460221EB
:100D60000090D02000F0E2F938BD70B504460D4681
:100D7000032C00DD70BD04EB44002530C1B22A46CF
:100D8000D02000F0C9F900BFF4E710B501231A46DE
:100D90006A21D02000F0FFF910BD10B504462346AB
:100DA00006226A21D02000F0F6F910BD10B501230B
:100DB00003226A21D02000F0EEF910BD3402002099
:100DC00008B50121082003F0BDFDC020ADF80000EA
:100DD00010208DF8030003208DF802006946FE48BC
:100DE00003F0F4FAFDA005F05FF908BD10B5FA486C
:100DF000006820F07040F84908600846006840F03C
:100E0000405008600120FC490860FC49C1F8980185
:100E10000420FFF723FB0020F74908600420FFF7B8
:100E20001DFB0020F549C1F8980110BD10B5EA4836
:100E3000006820F07040E84908600846006840F00B
:100E4000405008600020EC49091F0860EB49C1F8D8
:100E50009C010420FFF702FB0120E749091F0860FD
:100E6000E649C1F89C010420FFF7F8FA10BD10B55F
:100E70000024D948006820F07040D749086008462F
:100E8000006840F0004008600120DB490860FFF77F
:100E9000E5FA0120D949C1F89801FFF7DFFA0AE025
:100EA000601CC4B2322C03DDFFF7C0FF012010BD6F
:100EB0000120FFF7D3FAD048803800680028EFD12E
:100EC000CD49091F086000BFF1E710B50020CA49ED
:100ED000091F0860C048006820F07040BE490860E3
:100EE0000846006840F0405008600020C349C1F83F
:100EF0009C010120FFF7B2FA0120BF49091F0860D9
:100F0000FFF7ACFA0020BD49C1F8980110BD10B53B
:100F10000020B949091F0860AF48006820F0704000
:100F2000AD4908600846006840F040500860012064
:100F3000B249C1F89C01FFF791FA0120AE49091F9F
:100F40000860FFF78BFA0020AC49C1F8980110BD8A
:100F500070B50446A048006820F070409E490860C3
:100F60000846006840F0405008600020A249091F70
:100F70000860002516E0E0099F4908606006040E3D
:100F80000120FFF76BFA01209C49C1F89801FFF797
:100F900065FA00209849091F08600120FFF75EFAF2
:100FA000681CC5B2082DE6DB70BD70B5054600248F
:100FB0008948006820F0704087490860084600684A
:100FC00040F000400860002617E000208A49091F11
:100FD00008600120FFF742FA01208849C1F8980112
:100FE0006006040E84488038006808B1601CC4B2F2
:100FF0000120FFF733FA701CC6B2082EE5DB15B1ED
:10100000FFF763FF01E0FFF782FF204670BD70B578
:1010100005460E460024FFF7E9FE2846FFF798FF35
:10102000641CFFF724FF3046FFF792FF641CFFF7B4
:101030001EFFFFF7DBFE691CC8B2FFF789FF641CC7
:10104000FFF715FF0020FFF7B0FF0446FFF7EEFEA5
:10105000204670BD2DE9F04706460F4615469846D6
:101060000024FFF7C3FE3046FFF772FFFFF7FFFED5
:101070003846FFF76DFFFFF7FAFEFFF7B7FE711C6A
:10108000C8B2FFF765FFFFF7F2FE00BF0FE0681E72
:10109000A04204D00120FFF788FF814603E0002032
:1010A000FFF783FF814608F80490601CC4B2AC428D
:1010B000EDDBFFF7BBFE2046BDE8F0872DE9F041F0
:1010C00080460D4616461F460024FFF78FFE404619
:1010D000FFF73EFFFFF7CBFE2846FFF739FFFFF78C
:1010E000C6FE00BF06E0385DFFF732FFFFF7BFFE28
:1010F000601CC4B2B442F6DBFFF798FE0120BDE8E5
:10110000F08170B505460E46144631462846FFF775
:101110007EFF2070012070BD37B504460D4602AB3E
:10112000012229462046FFF7C9FF3EBD2DE9F843BD
:101130000746884614461D46089E6A46414638467C
:10114000FFF7DFFF28B3601CFF2101FA00F0C4F1B4
:1011500008012944491EFF220A41104300F0FF09FB
:10116000C5F1080006FA00F0C6B2C4F10700064156
:101170009DF8000000EA090000909DF8000030434F
:1011800000909DF8002041463846FFF7C5FFBDE8B6
:10119000F8830020FBE7F8B506460F4614461D46C7
:1011A0006A4639463046FFF7ACFF2DB10120A0401A
:1011B0009DF80010084305E00120A0409DF80010B4
:1011C00021EA0000C0B200909DF800203946304668
:1011D000FFF7A2FFF8BD0000000C01404949432081
:1011E00062757320696E69742073756363657373C8
:1011F0002E2E2E0D0A0000009C81214200802142EB
:1012000010B50121880704F0FAFA00284DD04748AC
:101210000088401C4549088045480088401C4449D6
:10122000088044480088401C4249088042480088A1
:10123000401C80B24049088000EBC00101EB001067
:101240004FF47A71B1EB400F05DC00203A49088079
:1012500001203A4908703A480088401C80B2384959
:10126000088000EB80004FF47A71B1EB800F05DC51
:101270000020334908800120324908703248008834
:10128000401C80B23049088000EB80004FF47A7136
:10129000B1EB400F05DC00202B49088001202B49D1
:1012A00008700121880704F0BBFA10BD3EB5054661
:1012B0000C460121084603F052FB4FF0804003F03A
:1012C000A5FBA0B2ADF80400681E80B2ADF8000026
:1012D0000020ADF80600ADF8020069464FF08040EE
:1012E00003F068FC0121880704F086FA0122114608
:1012F000900703F0D6FF0121880703F0B7FF14A081
:1013000004F0D2FE3EBD08B54FF4A06002F090FF9D
:101310001C208DF8000001208DF801008DF80200DE
:101320008DF80300684602F088FF08BD2A000020FF
:10133000380000203E0000203A000020300000204D
:101340004000002033000020420000203400002034
:1013500054696D6572203220696E697420737563FB
:10136000636573732E2E2E0D0A00000030B540F217
:10137000E734A04200DB204640F2E734A14200DB24
:10138000214640F2E734A24200DB224640F2E73435
:10139000A34200DB2346002800DC0020002900DCFB
:1013A0000021002A00DC0022002B00DC0023454D38
:1013B00028802D1D2980444D2A802D1D2B8030BD75
:1013C00010B588B000240121082003F0BBFA0121E8
:1013D000062003F0C4FA40F20330ADF81C001820D8
:1013E0008DF81F0002208DF81E0007A9374802F073
:1013F000EDFF35483C3803F009FB32483C3803F038
:1014000005FB334800683349B0FBF1F0401E84B25D
:1014100040F2E730ADF81400ADF810400020ADF810
:101420001600ADF8120004A927483C3803F0C2FBAF
:1014300004A924483C3803F0BDFB684603F0EFFEE6
:101440006020ADF800000120ADF802000020ADF8EA
:101450000600ADF8080069461B483C3803F076FCEE
:10146000694619483C3803F0BCFC694615483C38CD
:1014700003F06CFC694613483C3803F0B2FC0821C9
:1014800011483C3804F038F808210F483C3804F083
:101490003CF808210B483C3804F02EF80821094894
:1014A0003C3804F032F8012107483C3803F0DEFEF6
:1014B000012104483C3803F0D9FE07A004F0F4FDF4
:1014C00008B010BD3C0800403C040040000C014046
:1014D0000000002000366E014D6F746F7220696E3F
:1014E000697420737563636573732E2E2E0D0A0065
:1014F00010B58B488B4948608B4848608BA004F03E
:10150000D3FD10BD8748006940F08000854908611F
:1015100070478448C16801F0010008B1012070479C
:1015200001F0040008B10220F9E701F0100008B151
:101530000320F4E70020F2E770B5044600BFFFF790
:10154000E8FF0546012D00D006E00120FEF786FFEA
:10155000601E84B2002CF2D100BF04B9FF252846DA
:1015600070BD70B50546002445F6FF70FFF7E4FF37
:101570000446C4B96B48006940F00200694908613B
:1015800008464561006940F04000086145F6FF707B
:10159000FFF7D2FF0446012C05D06248006920F015
:1015A000020060490861204670BD70B505460E46D0
:1015B000FF20FFF7C1FF044694B95A48006940F084
:1015C0000100584908612E80FF20FFF7B5FF04464F
:1015D000012C05D05348006920F0010051490861F1
:1015E000204670BD0146088870472DE9F041054648
:1015F0000E461746002407E036F814102846FFF779
:10160000D4FFAD1C601C84B2BC42F5DBBDE8F081A8
:1016100030B503460C461546002207E01846FFF792
:10162000E1FF24F812009B1C501C82B2AA42F5DB99
:1016300030BD2DE9F05F80468A461746B8F1006F4D
:1016400002D34248804501D3BDE8F09FFFF750FF29
:10165000A8F1006B4FEA9B25CBF34809C9F500744C
:10166000A74200DC3C464DE04FF0006101EB8520D5
:101670008A143749FFF7CCFF00260BE009EB060080
:10168000334931F810004FF6FF71884200D003E073
:10169000701C86B2A642F1DB00BFA6421BDA4FF0F7
:1016A000006101EB8520FFF75CFF002608E03AF8B7
:1016B000160006EB0901264A22F81100701C86B2BA
:1016C000A642F4DB4FF0006101EB85208A1420492B
:1016D000FFF78BFF04E0224651464046FFF785FFA7
:1016E000A74200D10FE06D1C4FF000090AEB440A3D
:1016F000A044381B87B2B7F5007F02DD4FF40074B9
:1017000000E03C46B0E700BFFFF7FCFE00BF9BE7F0
:1017100013B50446012201A92046FFF78AFF1CBD2C
:101720002301674500200240AB89EFCD496E6E650D
:101730007220464C41534820756E6C6F636B20736A
:101740007563636573732E2E2E0D0A000000010869
:10175000E6020020014600BF704700BFCE4A128853
:1017600002F04002002AF9D0C2B2CB4B1B1D1A80F6
:10177000704708B525208DF8000000208DF8010085
:101780008DF8020001208DF80300684602F055FD37
:1017900008BD30B585B004460D46C048806940F0AC
:1017A0000400BE4988610846806940F48040886131
:1017B0004815ADF8100018208DF8130003208DF89F
:1017C000120004A9B64802F001FE4FF48060ADF8A3
:1017D000100004208DF8130004A9B14802F0F6FDB2
:1017E0004FF4E13000900020ADF80400ADF80600A1
:1017F000ADF80800ADF80C000C20ADF80A00694601
:10180000A54804F054F80121A34804F0DCF8A248EC
:101810000C30008840F480709F490C3108800846E5
:10182000008840F020000880FFF7A3FF012240F26B
:101830002551994804F0D3F800209A49088048803F
:101840007F208880984888600020984908804880D8
:101850007F20888096488860214696A004F024FC6A
:1018600029469CA004F020FC05B030BD0288838886
:101870001A40836899540288521C0280704710B540
:10188000044621468748FFF7F1FF012240F2277105
:10189000814804F0A4F810BD10B5044621468148E3
:1018A000FFF7E4FF012240F227717B4804F097F82C
:1018B000204610BD01464A888B881A408B68985C88
:1018C0004A88521C4A807047014608884A88801A14
:1018D0008A881040704701884180704770B504467F
:1018E0000D46002606E021786E48FFF7BFFF641C16
:1018F000701CC6B2AE42F6DB012240F22771664888
:1019000004F06DF870BD10B540F22771624804F024
:101910004BF990B16348FFF7CDFF044621465E487E
:1019200004F0BEF85F48FFF7CFFFF8B9002240F29D
:101930002771594804F053F818E040F225515648F1
:1019400004F032F990B140F22551534804F056F9B1
:10195000514804F0A9F866490870084601785348D0
:10196000FFF784FF6248007800F0A9FD10BD08B5BC
:1019700026208DF8000000208DF801008DF802006F
:1019800001208DF80300684602F057FC08BD30B511
:1019900085B004460D464148806940F004003F4947
:1019A00088610846C06940F40030C8610420ADF881
:1019B000100018208DF8130003208DF8120004A9E0
:1019C000374802F003FD0820ADF8100004208DF820
:1019D000130004A9324802F0F9FC4FF4E130009002
:1019E0000020ADF80400ADF80600ADF80800ADF831
:1019F0000C000C20ADF80A0069463E4803F057FF82
:101A000001213C4803F0DFFF3A480C30008840F4E5
:101A1000807038490C3108800846008840F020006A
:101A20000880FFF7A4FF012240F22551314803F05E
:101A3000D6FF21461FA004F037FB294625A004F05D
:101A400033FB05B030BD10B540F22771294804F0D2
:101A5000ABF830B1002240F22771264803F0BFFFF7
:101A600018E040F22551234804F09EF890B140F26E
:101A70002551204804F0C2F81E4804F015F81C490E
:101A80000870084601781B4804F00AF818480078E6
:101A900000F015FD10BD00000038014000100240AC
:101AA00000080140E806002080070020F40600201E
:101AB000000700204D435520636C6F636B206672F6
:101AC000657175656E63793A25644D487A200D0A13
:101AD000000000005541525420312062617564209D
:101AE00066726571756E63793A2564200D0A00008F
:101AF000540000200044004010B57748806940F051
:101B00000800754988617548006820F47060734961
:101B100008600846006840F4407008606F480C3068
:101B2000006840F004006D490C31086004216B48E6
:101B300002F0F9FC6AA004F0B7FA10BD70B50546D2
:101B4000002404E000206D490855601CC4B2142C28
:101B5000F8DB4FF400516A4802F0E7FC6420FEF71E
:101B60006CFC4FF40051664802F0DDFC002404E0F8
:101B7000285DFFF784FE601CC4B2284604F03CFBDD
:101B8000A042F5D86420FEF758FC002407E05D4829
:101B9000FFF790FE2146621CD4B2584A505459486F
:101BA000FFF792FE0028F2D170BD70B50546002403
:101BB00007E05248005D295D884200D006E0601CC5
:101BC000C4B2284604F018FBA042F2D800BF284651
:101BD00004F012FBA04201D0002070BD0120FCE700
:101BE00010B5002414E0484850F824104748007805
:101BF000FFF7CFFD4648FFF7A1FF4648FFF7D5FFA7
:101C0000012803D1404850F8240010BD601CC4B224
:101C1000092CE8DB4FF4E130F7E710B53C48FFF75B
:101C20008DFF3C48FFF7C1FF012800D110BD3AA04D
:101C300004F03AFAFFF7D4FF454908600846006807
:101C4000B0F5E13F3AD04348FFF778FF4248FFF74D
:101C500075FF00242FE04FF40051294802F065FC85
:101C60004FF48041264802F060FC4FF400412448C4
:101C700002F05BFC4FF47A70FEF7DFFB4FF400518B
:101C80001F4802F050FC4FF480411D4802F04BFC0D
:101C90004FF400411A4802F046FC4FF47A70FEF708
:101CA000CCFB2E4850F8240029490968884200D10D
:101CB00003E0601CC4B2092CCDDB02E028A004F0D4
:101CC000F3F94FF4E13111480078FFF762FD2CA0E1
:101CD00004F0EAF900BFA9E700100240000C01403F
:101CE000425420706F77657220696E697420737535
:101CF00063636573732E2E2E0D0A0000C808002042
:101D000000100140F40600205C000020B00000201C
:101D10001E7A0008237A00084254206261756E64BE
:101D200020636865636B20616E6420696E6974204E
:101D3000626567696E2E7072696E746620697320C1
:101D40007573656C6573732E0D0A0D0A0000000033
:101D500080000020317A0008777A00088400002093
:101D60004254206D6F64756C6520626175642069F2
:101D70007320313135323030206F6B61790D0A00BC
:101D80000D0A4254206261756E6420636865636B5E
:101D900020616E6420696E697420656E642E0D0A80
:101DA00000000000092000F083F900F0D1F8554848
:101DB00000684FF47A72B0FBF2F1B1F1807F00D38A
:101DC0001DE021F07F40401E4FF0E022506150178F
:101DD0000F22002807DA13071D0E4B4B00F00F04EB
:101DE000241F1D5503E013071C0E484B1C5400BF55
:101DF00000204FF0E02290610720106100BF4FF4F7
:101E0000E13143480078FFF7C4FC4FF4E13140482A
:101E10000078FFF7BCFD00F0E5F8FFF769FB02F082
:101E200096F9FEF743FB00F08DF9FFF7F6FE4FF44D
:101E30007A7137480078FFF739FA01203549087080
:101E40005EE0354800880A2814DB0020324908800B
:101E500000F091F831494968401A3149486000F072
:101E60008AF82E49486000F086F82C494968401AE3
:101E70002C4948602C480078B0B100202A490870ED
:101E800000F079F82549C968401A2549C86000F072
:101E900072F82249C86000F0B3F900F06CF81F49ED
:101EA000C968401A1F49C8602048007840B3002024
:101EB0001E49087000F05FF818498968401A1849EF
:101EC000886000F058F8154988604FF400511848B0
:101ED00002F029FB4FF48041154802F024FB4FF437
:101EE0000041134802F01FFB4FF48071114802F0CB
:101EF0001CFB00F040F809498968401A09498860CC
:101F00009FE700000000002018ED00E000E400E082
:101F1000B0000020EC0100203E000020FC08002062
:101F20002409002010090020300000203400002087
:101F30000010014000080140704700BFFEE700BFED
:101F4000FEE700BFFEE700BFFEE77047704770473F
:101F500000B585B0684602F088FC1F490098B0FBC8
:101F6000F1F01E49086005B000BD1D480068401C26
:101F70001B490860704700BF194801684FF0E02016
:101F80008269174800688142F6D11448006800EB66
:101F90004003C3EBC010C2EBC000104B1B68B0FB8A
:101FA000F3F001EB4103C3EBC11300EBC300704737
:101FB00030B50446FFF7DFFF054600BFFFF7DBFF44
:101FC000401B04EB4401C1EBC411B0EBC10FF5D3CE
:101FD00030BD03480068704740420F00A800002051
:101FE000AC00002010B5FFF78EF9FFF7C2FB10BD63
:101FF00000207C490861C860142048610020886185
:10200000C8610846006840F0010008600846406862
:10201000754908407349486008460068734908409C
:10202000704908600846006820F48020086008466F
:10203000406820F4FE004860002088607047014638
:102040006848006840F00100664A10601046006869
:1020500010601046006840F48020106000BF6148A6
:10206000006800F002000028F9D05E484268881E2F
:1020700042EA80405B4A506010464068506010461B
:10208000006840F08070106000BF5648006800F0A3
:1020900000700028F9D05348406840F00200514ACF
:1020A00050608806000E524A107010460078704743
:1020B00000B502460023FFF79BFF4A48006840F442
:1020C00080304849086000BF46480068400C00283E
:1020D000FAD04FF4806043494860901EC2B208466F
:1020E000406840EA824048600846406840F48030DA
:1020F00048604048006840F032003E490860394876
:10210000006840F080703749086000BF35480068BB
:10211000400E0028FAD03348406840F002003149B0
:10212000486005E02F484068C0F3870303F00303CD
:10213000022BF7D1901CC006000E2D4908700846EE
:10214000007800BD10B5002449E04FF400512A4842
:1021500002F0EBF94FF48041274802F0E4F94FF424
:102160000041254802F0DFF92448FEF783F94FF4D7
:102170000051214802F0D7F94FF480411E4802F087
:10218000D4F94FF400411C4802F0CDF91B48FEF78A
:1021900071F94FF40051184802F0C5F94FF480412D
:1021A000154802F0C0F94FF40041134802F0BDF9A0
:1021B0001248FEF75FF94FF400510F4802F0B3F9EF
:1021C0004FF480410C4802F0AEF94FF400410A4848
:1021D00002F0A9F90948FEF74DF9601CC4B2042CBD
:1021E000B3DB10BD001002400000FFF8FFFFF6FE59
:1021F000B00000200020024000100140A0BB0D00F4
:102200002DE9F047FE48C088B0F57A7F03DA4FF435
:102210007A70FB49C880FA48C088B0F5FA6F03DDD0
:102220004FF4FA60F649C880F5488088B0F57A7FA7
:1022300003DA4FF47A70F2498880F1488088B0F56B
:10224000FA6F03DD4FF4FA60ED498880EC4840886E
:10225000B0F57A7F03DA4FF47A70E9494880E848AC
:102260004088B0F5FA6F03DD4FF4FA60E449488026
:10227000E3480088B0F57A7F03DA4FF47A70E049DA
:102280000880DF480088B0F5FA6F03DD4FF4FA608C
:10229000DB490880DA490988A1F2DC5004F094FD9A
:1022A00021F0004104460022D64B04F0A5FD04D2E3
:1022B00040F2DC50D249088016E0D1480088A0F2F4
:1022C000DC50002805DDCE4800883238CC49088033
:1022D0000AE0CB480088A0F2DC50002804D5C848AA
:1022E00000883230C6490880C549C988A1F57A708E
:1022F00005F090F8C4498860C1498988A1F2DC5092
:1023000005F088F88146C14AC14903F0E1FD044661
:1023100004F0E2FE0746BF4ABF4B04F0A9FD0546A4
:1023200004F0BCFBB849C860B5494988A1F2DC504B
:1023300005F070F88146B94AB54903F0C9FD044675
:1023400004F0CAFE07460022B54B04F091FD054695
:1023500004F0A4FBAC494860A9490988A1F2DC500B
:1023600005F058F88146AD4AA94903F0B1FD04468D
:1023700004F0B2FE07460022A94B04F079FD0546A1
:1023800004F08CFBA0490860A6480078012802D020
:10239000032824D10FE000F0EFFC30B10220A14966
:1023A0000870A520A049087004E000209E4908702C
:1023B0009C49087014E000209B49087001209B494B
:1023C00008709B49087000209A4908609A489B4908
:1023D000086000209A4908709249087000E000BF28
:1023E00000BFBDE8F08710B5964800790C2843D0AF
:1023F00008DC052830D0062832D007280BD0092861
:102400005BD141E00D283BD010282DD014283FD0BF
:10241000CD2852D12CE08B4840798A49897940EA0D
:1024200001207749C8808748C0798649097A40EAFF
:102430000120734988808348407A8249897A40EA3A
:1024400001206F4948807F48C07A7E49097B40EA75
:1024500001206B49088030E00120724908702CE0AF
:1024600003207049087028E001207749087024E0B3
:1024700001207649087020E0012003F053FC1CE0A5
:10248000002003F04FFC18E002206849087014E0B7
:102490004FF400516E4802F048F84FF480416C4808
:1024A00002F043F84FF40041694802F03EF84FF45F
:1024B0008071684802F037F800BF00BF10BD10B54A
:1024C0000446604864490978445463480078032806
:1024D00039DA6148007820B1012813D0022831D1BF
:1024E00020E058485C490978405C242809D15A48C2
:1024F0000078401C584908704FF48041544802F05D
:1025000014F81FE04F4854490978405C4D2805D124
:1025100051480078401C5049087002E000204E49A4
:1025200008700FE047484C490978405C3C2805D1C9
:1025300049480078401C4849087002E0002046499C
:10254000087000BF38E044480078032808D1002014
:10255000424908703B4840490978405C404908704E
:102560003D480078401C3C490870084601783C48CA
:102570000078801D814215DB37480078401E3149C4
:10258000085C36490978884208D1FFF72CFF012002
:1025900034490870FFF71DFD3349086000202E49BB
:1025A000087009E02C480078401E2649085C2B4939
:1025B000097848402949087010BD10B504462146E5
:1025C0002A48FFF753F925480078604023490870EE
:1025D00010BD10B5044626490C7008460178234802
:1025E000FFF744F91D4800782149097848401B4904
:1025F0000870200A1E490870084601781B4839E017
:10260000C200002000004940C00C002000008C42A5
:102610000000FA43AA9F9622DCA54C4000004842E5
:1026200000004440BD00002024020020EC010020F6
:10263000F4010020FC010020CDCC0CBFF8010020EB
:10264000AC01002038090020B5000020CE00002099
:102650000010014000080140BF000020CA00002017
:10266000C0000020BE000020B8000020E8060020C6
:10267000CB000020FFF7FAF8634800786349097837
:10268000484061490870200C60490870084601788C
:102690005F48FFF7EBF85C4800785C4909784840F0
:1026A00059490870200E5949087008460178584861
:1026B000FFF7DCF8544800785449097848405249FB
:1026C000087010BD10B5044652490C7008460178D8
:1026D0004F48FFF7CBF84C4800784E4909784840FE
:1026E00049490870200A4B49087008460178484853
:1026F000FFF7BCF844480078464909784840424909
:10270000087010BD70B52420FFF757FF4D20FFF76C
:1027100054FF3E20FFF751FF00203B4908700E2078
:10272000FFF74BFF1020FFF748FF3B49D1F8A80007
:102730003A4904F0CFFE054604F030FE04B22046CC
:10274000FFF7C0FF3449D1F8AC00344904F0C2FEB1
:10275000054604F023FE04B22046FFF7B3FF2E49DE
:10276000D1F8B0002D4904F0B5FE054604F016FE80
:1027700004B22046FFF7A6FF2948806880F0004693
:102780002849304604F0A6FE054604F007FE04463C
:10279000FFF71FFF24494868224904F09BFE0546C5
:1027A00004F0FCFD04B22046FFF78CFF1C48406992
:1027B00080F000461D49304604F08CFE054604F0CA
:1027C000EDFD04B22046FFF77DFF0F480078FFF7CC
:1027D000F4FE012240F22771154803F000F970BDA4
:1027E00010B52420FFF7E9FE4D20FFF7E6FE3E205E
:1027F000FFF7E3FE4F20FFF7E0FE012240F22771D2
:102800000B4803F0ECF810BDCA000020CB000020FC
:10281000E8060020CC0000205809002000002041DC
:10282000300A00200000C842DC08002000007A4482
:102830000038014010B50020FE49487001200870A2
:10284000FD49FE4800F06AFDFB49FC4800F043FEEC
:10285000F949FA4800F01CFFF749F84801F024F85C
:10286000F549F64801F0FDF8F349F44801F00EFA95
:1028700010BD2DE9F04F8FB004460D4616461F4699
:10288000284604F029FCEE4AEE4BCDE9000104F0A5
:10289000EFFA0022EC4BCDE9020104F03DF9CDE95D
:1028A000040104F0FBF8069003F0A6FE0D90284604
:1028B00004F012FCE24AE34BCDE9000104F0D8FA3F
:1028C0000022E14BCDE9020104F026F9CDE9040133
:1028D00004F0E4F8069003F04DFF0C90304604F04D
:1028E000FBFBD74AD74BCDE9000104F0C1FA002227
:1028F000D54BCDE9020104F00FF9CDE9040104F054
:10290000CDF8069003F078FE8046304604F0E4FBF4
:10291000CB4ACC4BCDE9000104F0AAFA0022CA4B05
:10292000CDE9020104F0F8F8CDE9040104F0B6F8AD
:10293000069003F01FFF8146384604F0CDFBC04AE5
:10294000C04BCDE9000104F093FA0022BE4BCDE963
:10295000020104F0E1F8CDE9040104F09FF80690CB
:1029600003F04AFE8246384604F0B6FBB44AB54B43
:10297000CDE9000104F07CFA0022B34BCDE902015D
:1029800004F0CAF8CDE9040104F088F8069003F0D9
:10299000F1FE834650460D9904F09CFD0B90414694
:1029A000504604F097FD0A9058460D9904F092FDA8
:1029B000099051460C9804F08DFD089059460C98EA
:1029C00004F088FD07900A9820605946404604F0BC
:1029D00081FD606089F00040A0604946089804F0DD
:1029E00079FD0690099880F000400590069904F062
:1029F0009FFBE0604946079804F06CFD06900B9938
:102A000004F096FB206141460C9804F063FD606180
:102A100049460B9804F05EFD0690079904F088FB88
:102A2000A0614946099804F055FD0690089880F089
:102A300000400590069904F07BFBE06140460D994B
:102A400004F048FD20620FB0BDE8F08F10B57F485C
:102A5000808B784948807D48018C764881807B480E
:102A6000818C7448C1807948008A7249088177480E
:102A7000818A704841817548018B6E488181734815
:102A8000406C6C4948617148816C6A4881616F484B
:102A9000C16C6848C1616D48806B664908626B48CB
:102AA000C16B644841626948016C624881620246B8
:102AB000916B506904F0CEFE044600F0BBFC5D490A
:102AC00008650A46D16B906904F0C4FE044600F024
:102AD0008EFD584948650A46116CD06904F0BAFE6B
:102AE000044600F090FE534988650A46516C106A0E
:102AF00004F0B0FE044600F063FF4E4988660A46C3
:102B0000916C506A04F0A6FE044601F036F849497B
:102B1000C8660A46D16C906A04F09CFE044601F037
:102B200041F9444908674A484068C1F8AC00484840
:102B30000068C1F8A80046488068C1F8B00008469F
:102B4000D0F8B030D0F8AC20D0F8A8107430FFF72F
:102B500090FE10BD2DE9F047002600240027002537
:102B6000A046FFF736FA85B23A480088281A87B29D
:102B70003948007898B901203749087000BF0CE047
:102B80000020364941F82400354941F824003549F0
:102B9000088028494870601CC4B2032CF0DB0A2F5F
:102BA00074DB30480088B0F5967F25DA002419E000
:102BB000204A143252F82410284A52F8240004F013
:102BC000B7FA264941F824001A4A203252F8241054
:102BD000234A52F8240004F0ABFA214941F82400BA
:102BE000601CC4B2032CE3DB1E480088401C1D4956
:102BF00008801848058049E000243AE01948008818
:102C000004F020FC8146154951F82400494604F09F
:102C100003FB0849383141F824001248008804F0C9
:102C200011FC81460E4951F82400494604F0F4FA9B
:102C3000004919E0580900200000F0410000C84296
:102C40004AD8124DFB210940008066401C08002034
:102C500000080020D2000020D6000020180A002022
:102C6000240A0020D0000020443141F82400601CD8
:102C7000C4B2032CC2DBFE49086CFE4904F0EAFD35
:102C8000FB4908640020FC49087001263046BDE875
:102C9000F0872DE9F84FF648801CFDF78CFDF448CD
:102CA0000830FDF7A9FD4FF0000A33E0F049891C18
:102CB00031F91A0004F0AEFB05464FF0665104F0FE
:102CC00009FC0446EB4904F005FCE949143141F8DC
:102CD0002A000C3931F91A0004F09CFBE7490090F6
:102CE00004F0F8FB834604F0F7F90646E44AE54BA6
:102CF00004F0BEF804460022E34B03F00DFF8046CB
:102D000003F0CCFEDA49203141F82A000AF1010033
:102D100000F0FF0ABAF1030FC8DBD54A916B506986
:102D200004F098FD044600F085FBD14908650A4689
:102D3000D16B906904F08EFD044600F058FCCC493C
:102D400048650A46116CD06904F084FD044600F021
:102D50005AFDC7498865086A00F032FEC449886692
:102D6000486A00F00AFFC249C866886A01F01AF88A
:102D7000BF490867BDE8F88F2DE9F0470024A04659
:102D8000002509E0BA48801CFDF715FDB848B0F9E8
:102D900006000444681CC5B2052DF3DB204604F090
:102DA00051FB8146B94904F037FA07464FF06651A6
:102DB00004F090FB0646AF4904F08CFBAC49C861B7
:102DC0000A46116CD06904F045FD8046404604F087
:102DD00083F90646AE4AAF4B04F048F90CD24046A0
:102DE00004F07AF90646AC4AAC4B04F005F803D27D
:102DF00001209F49087002E000209D4908709C480E
:102E00000078BDE8F0872DE9FF5F04460D46D5F850
:102E100000906E68AF68D5F80C803146304604F0FB
:102E200059FB03903946384604F054FB834641462B
:102E3000404604F04FFB02905846029904F078F99E
:102E40004FF08041019004F045FB82464FF07E51E7
:102E500004F06EFC20604146484604F03BFB3946D6
:102E60000190304604F036FB0090019904F060F9BF
:102E700082464FF0804104F02DFBE0603946484621
:102E800004F028FB41460190304604F023FB0090FB
:102E9000019904F0DFFC82464FF0804104F01AFBF8
:102EA000A0614146484604F015FB39460190304682
:102EB00004F010FB0090019904F0CCFC82464FF026
:102EC000804104F007FB6060DDE9021004F030F996
:102ED0004FF08041019004F0FDFA82464FF07E51A0
:102EE00004F026FC20613146484604F0F3FA4146DE
:102EF0000190384604F0EEFA0090019904F018F9B8
:102F000082464FF0804104F0E5FAE06139464846D8
:102F100004F0E0FA41460190304604F0DBFA0090FC
:102F2000019904F005F982464FF0804104F0D2FA8D
:102F3000A0603146484604F0CDFA4146019038463B
:102F400004F0C8FA0090019904F084FC82464FF026
:102F5000804104F0BFFA60615946039804F0E8F834
:102F60004FF08041019004F0B5FA82464FF07E5157
:102F700004F0DEFB2062BDE8FF9F2DE9F04F85B035
:102F800004460D4616461F46304603F035FB824682
:102F9000304603F0EFFB8046284603F0EBFB04903D
:102FA000284603F029FB0390384603F0E3FB029028
:102FB000384603F021FB01905046019904F08AFA4B
:102FC0002060DDE9021004F085FA8346414604984A
:102FD00004F080FA0090019904F07CFA8146594689
:102FE00004F038FC60600299049804F073FA834698
:102FF0004146039804F06EFA0090019904F06AFAD1
:103000008146594604F094F8A0605046029904F0B5
:1030100061FAE0600199039804F05CFA8346414646
:10302000049804F057FA0090029904F053FA81468C
:10303000594604F07DF820610199049804F04AFA99
:1030400083464146039804F045FA0090029904F043
:1030500041FA8146594604F0FDFB606188F000406A
:10306000A0615146049804F035FAE061514617E03A
:10307000580900200AE81C41D600002000007A3DD3
:103080004AD8124DFB210940008066400000A04054
:10309000666666A6678323409A9999D99AB62340B3
:1030A000039804F017FA206205B0BDE8F08F2DE90F
:1030B000F04705460C464FF07E50216804F038F882
:1030C0008146216904F034F88046216A04F030F822
:1030D000074603F013FC06464FF07C5104F0FAF962
:1030E00028604FF07E50216804F022F88146216963
:1030F00004F0B0FB8046216A04F0ACFB074603F005
:10310000FDFB06464FF07C5104F0E4F968604FF097
:103110007E50216804F09EFB8146216904F008F886
:103120008046216A04F096FB074603F0E7FB06465B
:103130004FF07C5104F0CEF9A8604FF07E5021682A
:1031400004F088FB8146216904F084FB8046216AF3
:1031500003F0EEFF074603F0D1FB06464FF07C512B
:1031600004F0B8F9E860BDE8F08730B502460B46D8
:10317000002013E000210DE001EB410403EB840487
:1031800054F8204000EB400502EB850545F821404E
:103190004C1CE1B20329EFDB441CE0B20328E9DB5D
:1031A00030BD2DE9F04705460F46904600241BE050
:1031B000002045F82400002612E004EB440207EB4F
:1031C000820252F8260058F8261004F083F981464E
:1031D00055F8241003F0ACFF45F82400701CC6B26B
:1031E000032EEADB601CC4B2032CE1DBBDE8F087F0
:1031F0002DE9F0478AB081460F469046002435E01D
:1032000000252FE0002004EB440101AA02EB81011C
:1032100041F82500002621E006EB460208EB820279
:1032200052F8251004EB440207EB820252F8260004
:1032300004F050F9824604EB440001AA02EB80003E
:1032400050F82510504603F073FF04EB440101AA27
:1032500002EB810141F82500701CC6B2032EDBDBB6
:10326000681CC5B2032DCDDB601CC4B2032CC7DBC8
:10327000242201A9484602F0DEFF0AB0BDE8F0872B
:103280002DE9F04105460E46002700240CE056F8D3
:10329000241055F8240004F01DF98046394603F047
:1032A00047FF0746601CC4B2032CF0DB3846BDE87C
:1032B000F0812DE9FE4306460C4615466968A06874
:1032C00004F008F90746A968606804F003F980462D
:1032D000394604F0BFFA0090A968206804F0FAF8B3
:1032E00007462968A06804F0F5F88046394604F0DE
:1032F000B1FA01902968606804F0ECF80746696843
:10330000206804F0E7F88046394604F0A3FA0290FA
:103310009DE8070086E80700BDE8FE832DE9FE4F23
:1033200082460C460020029081460190214650467C
:1033300003F072FF0290029803F0CEFE07463A4671
:103340000B46FE48FE4903F0E7FB054603F0A6FBEB
:10335000834603F0E9FA81464946484604F0BAF844
:103360008046F84803F048F983464FF0804104F066
:10337000B1F80746494604F0ADF806464FF07E51D5
:1033800003F0D6FE0546414603F0D2FE0190EE481A
:1033900004600021006804F069F949D249464846B2
:1033A00004F098F80546019903F036FFE7490860F4
:1033B000084601684FF0804004F08CF8E44908604A
:1033C000E2480068E34908604946484604F082F84C
:1033D00007464FF07E5104F03DFA06464FF080411B
:1033E00004F078F80546019903F016FFDA49086001
:1033F0004946484604F06EF80090D24803F0FCF8C5
:1034000083464FF0804104F065F88046494604F059
:1034100061F807464FF07E5104F08AF9064600999C
:1034200003F086FE0546019903F0F6FECB490860DD
:10343000BDE8FE8F2DE9F047044600250026002157
:10344000C148006804F012F802D82046BDE8F087B1
:10345000C2480168C248006804F03CF88046BE4893
:103460000168C048006804F035F88146214604F040
:103470005FF90746414604F0EDF90546284602F09B
:10348000F3FF18B9284602F0E5FF00B12546B14820
:103490000168B348006804F01DF88046AC48016834
:1034A000B048006804F016F88146A848016828462C
:1034B00004F010F88246494603F03AFE07464146BA
:1034C00003F036FE0646A7480068A5490860A548EF
:1034D00005603046BAE72DE9FE4F82460C460020D3
:1034E0000290814601902146504603F095FE0290DD
:1034F000029803F0F1FD07463A460B468F48904983
:1035000003F00AFB054603F0C9FA834603F00CFA00
:1035100081464946484603F0DDFF8046894803F06E
:103520006BF883464FF0804103F0D4FF07464946CD
:1035300003F0D0FF06464FF07E5103F0F9FD05463B
:10354000414603F0F5FD01908748046000210068C2
:1035500004F08CF849D24946484603F0BBFF0546C3
:10356000019903F059FE81490860084601684FF04F
:10357000804003F0AFFF7E4908607C4800687D49C9
:1035800008604946484603F0A5FF07464FF07E51C4
:1035900004F060F906464FF0804103F09BFF0546BA
:1035A000019903F039FE744908604946484603F022
:1035B00091FF0090634803F01FF883464FF080416D
:1035C00003F088FF8046494603F084FF07464FF02A
:1035D0007E5104F0ADF80646009903F0A9FD0546BA
:1035E000019903F019FE65490860BDE8FE8F2DE9D9
:1035F000F04704460025002600215B48006803F0E0
:1036000035FF02D82046BDE8F0875C4801685C4879
:10361000006803F05FFF804657480168594800681A
:1036200003F058FF8146214604F082F807464146E0
:1036300004F010F90546284602F016FF18B928468E
:1036400002F008FF00B125464A4801684C4800686E
:1036500003F040FF8046464801684A48006803F08E
:1036600039FF814641480168284603F033FF82460E
:10367000494603F05DFD0746414603F059FD064605
:10368000404800683E4908603E4805603046BAE759
:103690002DE9FE4F82460C460020029081460190A3
:1036A0002146504603F0B8FD0290029803F014FD45
:1036B00007463A460B462148214903F02DFA0546B4
:1036C00003F0ECF9834603F02FF98146494648465A
:1036D00003F000FF80461B4802F08EFF83464FF048
:1036E000804103F0F7FE0746494603F0F3FE064625
:1036F0004FF07E5103F01CFD0546414603F018FDD6
:103700000190214804600021006803F0AFFF78D2E7
:103710004946484603F0DEFE0546019903F07CFD6C
:103720001A490860084601684FF0804003F0D2FE55
:10373000174908601548006816492DE04AD8124D0F
:10374000FB210940DA0F493FD8000020E4000020A7
:10375000E8000020EC000020DC000020E000002059
:10376000F4000020F0000020F800002004010020F8
:10377000080100200C010020FC00002000010020B6
:103780001401002010010020180100202401002055
:10379000280100202C01002008604946484603F01B
:1037A00099FE07464FF07E5104F054F806464FF05C
:1037B000804103F08FFE0546019903F02DFDFE497F
:1037C00008604946484603F085FE0090FB4802F039
:1037D00013FF83464FF0804103F07CFE804649464C
:1037E00003F078FE07464FF07E5103F0A1FF064636
:1037F000009903F09DFC0546019903F00DFDF04989
:103800000860BDE8FE8F2DE9F0470446002500263C
:103810000021EC48006803F029FE02D82046BDE8EC
:10382000F087E7480168E848006803F053FE8046E7
:10383000E1480168E548006803F04CFE81462146F6
:1038400003F076FF0746414604F004F80546284693
:1038500002F00AFE18B9284602F0FCFD00B1254628
:10386000DB480168D848006803F034FE8046D94838
:103870000168D648006803F02DFE8146D6480168ED
:10388000284603F027FE8246494603F051FC0746CE
:10389000414603F04DFC0646CC480068CA49086022
:1038A000CA4805603046BAE72DE9FE4F82460C460D
:1038B00000200290814601902146504603F0ACFC66
:1038C0000290029803F008FC07463A460B46C348AC
:1038D000C34903F021F9054603F0E0F8834603F0FD
:1038E00023F881464946484603F0F4FD8046B34834
:1038F00002F082FE83464FF0804103F0EBFD074665
:10390000494603F0E7FD06464FF07E5103F010FCF8
:103910000546414603F00CFC0190B24804600021CA
:10392000006803F0A3FE49D24946484603F0D2FDA1
:103930000546019903F070FCAB4908600846016830
:103940004FF0804003F0C6FDA8490860A648006813
:10395000A74908604946484603F0BCFD07464FF0BA
:103960007E5103F077FF06464FF0804103F0B2FD31
:103970000546019903F050FC9E49086049464846B7
:1039800003F0A8FD00908D4802F036FE83464FF00C
:10399000804103F09FFD8046494603F09BFD0746AA
:1039A0004FF07E5103F0C4FE0646009903F0C0FBC1
:1039B0000546019903F030FC8F490860BDE8FE8F91
:1039C0002DE9F047044600250026002185480068BF
:1039D00003F04CFD02D82046BDE8F0878648016818
:1039E0008648006803F076FD804682480168844876
:1039F000006803F06FFD8146214603F099FE0746FB
:103A0000414603F027FF0546284602F02DFD18B970
:103A1000284602F01FFD00B1254675480168774829
:103A2000006803F057FD80467048016874480068DC
:103A300003F050FD81466C480168284603F04AFDBA
:103A40008246494603F074FB0746414603F070FB8B
:103A500006466B4800686949086069480560304659
:103A6000BAE72DE9FE4F82460C46002002908146BF
:103A700001902146504603F0CFFB0290029803F0DC
:103A80002BFB07463A460B465448554903F044F889
:103A9000054603F003F8834602F046FF8146494697
:103AA000484603F017FD8046444802F0A5FD8346D2
:103AB0004FF0804103F00EFD0746494603F00AFD32
:103AC00006464FF07E5103F033FB0546414603F0B6
:103AD0002FFB01904B4804600021006803F0C6FDF5
:103AE00049D24946484603F0F5FC0546019903F0E2
:103AF00093FB45490860084601684FF0804003F099
:103B0000E9FC42490860404800684149086049466C
:103B1000484603F0DFFC07464FF07E5103F09AFE63
:103B200006464FF0804103F0D5FC0546019903F0AD
:103B300073FB384908604946484603F0CBFC0090C7
:103B40001E4802F059FD83464FF0804103F0C2FC4D
:103B50008046494603F0BEFC07464FF07E5103F015
:103B6000E7FD0646009903F0E3FA0546019903F0E4
:103B700053FB29490860BDE8FE8F2DE9F047044654
:103B80000025002600211F48006803F06FFC02D8C2
:103B90002046BDE8F087204801682048006803F00F
:103BA00099FC80461B4801681D48006803F092FCA0
:103BB0008146214636E000001C010020DA0F493F13
:103BC00020010020180100203401002030010020D5
:103BD0002C01002028010020240100204AD8124D89
:103BE000FB21094038010020440100204801002049
:103BF0004C0100203C010020400100205401002025
:103C000050010020580100206401002068010020BC
:103C10006C0100205C010020600100207401002084
:103C20007001002003F084FD0746414603F012FEB8
:103C30000546284602F018FC18B9284602F00AFC8E
:103C400000B12546804801688048006803F042FCC6
:103C500080467F4801687F48006803F03BFC81464E
:103C60007D480168284603F035FC8246494603F04A
:103C70005FFA0746414603F05BFA0646754800685E
:103C80007249086073480560304682E72DE9FE4FAF
:103C900082460C4600200290814601902146504603
:103CA00003F0BAFA0290029803F016FA07463A4671
:103CB0000B466A486A4902F02FFF054602F0EEFE05
:103CC000834602F031FE81464946484603F002FC35
:103CD0008046644802F090FC83464FF0804103F038
:103CE000F9FB0746494603F0F5FB06464FF07E51C7
:103CF00003F01EFA0546414603F01AFA01905A48AD
:103D000004600021006803F0B1FC49D249464846EE
:103D100003F0E0FB0546019903F07EFA5349086081
:103D2000084601684FF0804003F0D4FB504908601A
:103D30004E4800684F4908604946484603F0CAFBB0
:103D400007464FF07E5103F085FD06464FF0804157
:103D500003F0C0FB0546019903F05EFA464908608E
:103D60004946484603F0B6FB00903E4802F044FC4A
:103D700083464FF0804103F0ADFB8046494603F097
:103D8000A9FB07464FF07E5103F0D2FC064600998E
:103D900003F0CEF90546019903F03EFA3749086071
:103DA000BDE8FE8F2DE9F0470446002500260021DE
:103DB0002D48006803F05AFB02D82046BDE8F08782
:103DC0002E4801682E48006803F084FB80462A488C
:103DD00001682C48006803F07DFB8146214603F012
:103DE000A7FC0746414603F035FD0546284602F08C
:103DF0003BFB18B9284602F02DFB00B125461D48B3
:103E000001681F48006803F065FB80461848016898
:103E10001C48006803F05EFB814614480168284690
:103E200003F058FB8246494603F082F907464146B3
:103E300003F07EF9064613480068114908601148EE
:103E400005603046BAE700006C01002074010020D4
:103E50006801002070010020640100204AD8124D42
:103E6000FB210940DA0F493F78010020840100203E
:103E7000880100208C0100207C01002080010020AE
:103E8000940100209001002010B50222BA49BB48DD
:103E9000FDF7BEFBB849086803F080FA00B20128BC
:103EA00000D110BD0020FCE710B50222B249B34892
:103EB000FDF7BFFB10BD10B529246200AE49AF4825
:103EC000FDF7A6FB10BD10B529246200AA49AB4836
:103ED000FDF7AFFB10BD10B5002400BF48E0A648B9
:103EE000001D50F82400A64941F82400A2481C30C7
:103EF00050F82400A34941F824009F48343050F87A
:103F00002400A14941F824009B48103050F82400B7
:103F10009E4941F824009848283050F824009C49D4
:103F200041F824009448403050F82400994941F861
:103F3000240091484C3050F82400974941F824005F
:103F40008D48583050F82400944941F824008A489C
:103F5000643050F82410924840F82410864870309D
:103F600050F824108E480C3040F82410601CC4B265
:103F7000032CB4DB00240FE07F49883151F8240082
:103F800003F028FA874908550846025D214686A0B5
:103F900002F08AF8601CC4B2052CEDDB7648D0F83C
:103FA0009C00874908607449D1F8A00003F012FA18
:103FB0008449087010BD70B5002400BF51E07048FE
:103FC00050F824106C48001D40F824106D4850F83B
:103FD000245050F8241068481C3040F824106948D8
:103FE00050F8241064481C3040F82410664850F8FB
:103FF00024106148343040F82410644850F82410EC
:104000005D48103040F82410614850F824105A4898
:10401000283040F824105F4850F8241056484030AB
:1040200040F824105C4850F8241053484C3040F8B5
:1040300024105A4850F824104F48583040F82410A3
:10404000574850F824104C48643040F82410544825
:104050000C3050F824104848703040F82410601C90
:10406000C4B2032CABDB002409E04E49085D03F029
:10407000E9F94149883141F82400601CC4B2052C9B
:10408000F3DB4F4800683C49C1F89C004D4800787C
:1040900003F0D8F93849C1F8A00070BD4A48384942
:1040A00008604FF07E5048600020886047484862B2
:1040B0004748364908604FF07C5048604548886062
:1040C0004248486240482F4908604FF07E5048609F
:1040D000002088603D4848623D482D4908604FF007
:1040E0007C5048603B488860384848624FF07E50BA
:1040F00025490860384848600020886037482549CD
:1041000008600020486088604FF07E5022490860B7
:104110000020486088603248204908603148486083
:104120000020886030481E49383988632F491C4870
:104130003838C1632E4901642E481949383948641A
:104140002D491748383881640021C164704710B583
:104150002AA001F0A9FFFFF7A1FFFFF72CFF4FF006
:104160007E5005490860FFF7AEFE10BD10B5FFF7A1
:1041700022FFFFF7A8FE10BD780A002000FC00080F
:104180001C0B00207C0B0020DC0B00204C0B0020C3
:10419000AC0B00200C0C00203C0C00206C0C002010
:1041A000900900204800002052585F414444524585
:1041B00053535B25645D3A307825780D0A00000082
:1041C00058000020260200200000404100009643D5
:1041D0003333333F8FC2F53CCDCC4C3E0000A04181
:1041E000CDCCCC3D0AD7A33CD4F025BECB00983D26
:1041F0000139463F82C179BD42D91ABD6C6F6164F5
:1042000020706172616D732066726F6D20656570DC
:10421000726F6D206661696C65642C7365742064CF
:10422000656661756C742076616C75650D0A0000B9
:1042300031490143314A1160704770B500210023B4
:104240000F22C47804B32D4C246804F4E064C4F550
:10425000E064210AC1F10403CA40447804FA03F17E
:104260008478144021430901254C0678A15504782F
:1042700004F01F050124AC4005786D11AD0005F177
:10428000E025C5F8004109E0047804F01F05012489
:10429000AC401C4D0678761145F8264070BD1A4A90
:1042A0000A400243154B1B1F1A60704739B1134A6D
:1042B000121D12680243114B1B1D1A6006E00F4AC3
:1042C000121D126882430D4B1B1D1A607047042893
:1042D00008D14FF0E021096941F004014FF0E022DC
:1042E000116107E04FF0E021096921F004014FF06E
:1042F000E0221161704700000000FA050CED00E0BB
:1043000000E400E080E100E080FFFF1F10B50446FC
:10431000CC48844208D10121042000F02DFB00216B
:10432000042000F029FB46E0C748844208D101215F
:10433000082000F021FB0021082000F01DFB3AE0DE
:10434000C248844208D10121102000F015FB002151
:10435000102000F011FB2EE0BD48844208D101215D
:10436000202000F009FB0021202000F005FB22E0C6
:10437000B848844208D10121402000F0FDFA002114
:10438000402000F0F9FA16E0B348844208D1012138
:10439000802000F0F1FA0021802000F0EDFA0AE020
:1043A000AE48844207D10121801500F0E5FA0021D2
:1043B000A01500F0E1FA10BD10B50121084600F08B
:1043C000DBFA0021012000F0D7FA10BD2DE9F04101
:1043D000024600250026002000230024002791F833
:1043E00003C00CF00F0591F803C00CF0100CBCF1E9
:1043F000000F03D091F802C04CEA050591F800C007
:10440000BCF1000F31D0146800202BE04FF0010CFC
:104410000CFA00F3B1F800C00CEA03069E4220D16A
:1044200083004FF00F0C0CFA03F7BC4305FA03FCB2
:104430004CEA040491F803C0BCF1280F06D14FF0F8
:10444000010C0CFA00FCC2F814C00AE091F803C099
:10445000BCF1480F05D14FF0010C0CFA00FCC2F87A
:1044600010C0401C0828D1D31460B1F800C0BCF1C2
:10447000FF0F34DD546800202EE000F1080C4FF0EF
:10448000010808FA0CF3B1F800C00CEA03069E42DA
:1044900021D183004FF00F0C0CFA03F7BC4305FA4F
:1044A00003FC4CEA040491F803C0BCF1280F05D1C9
:1044B00000F1080C08FA0CF8C2F8148091F803C057
:1044C000BCF1480F07D100F1080C4FF0010808FAC1
:1044D0000CF8C2F81080401C0828CED35460BDE808
:1044E000F0814FF6FF710180022181700421C170BB
:1044F00070470246002093680B400BB1012000E09A
:10450000002070470146886880B27047024600204C
:10451000D3680B400BB1012000E00020704701463A
:10452000C86880B2704701617047416170470AB145
:10453000016100E041617047C16070474FF4803213
:104540000A438261816182618269826970470246A1
:104550000020434B18684FF68073184040EA021061
:1045600008433F4B186070473E49C8617047F0B53B
:104570000A46002300240021002500F00046B6F181
:10458000004F02D1364EF16901E0354E7168C0F33B
:10459000034583B200F44016B6F5401F08D121F060
:1045A00070612F4E766826F070662D4F7E6012E0A7
:1045B00000F48016B6F5801F06D1032606FA05F42E
:1045C000A14341F0706106E0460D360103FA06F69C
:1045D000B14341F0706122B1460D360103FA06F68F
:1045E000314300F00046B6F1004F02D11C4EF1619C
:1045F00001E01B4E7160F0BD30B500228B071C0F2F
:104600000F2303FA04F2164B08338C1053F82430AE
:104610009343134C08348D1044F8253023468C10F6
:1046200053F824308C07240F00FA04F423430C4C75
:1046300008348D1044F8253030BD0A49DC3108605B
:104640007047000000080140000C014000100140CC
:104650000014014000180140001C014000200140EE
:104660000000014000002042DF48006840F00100E7
:10467000DD49086008464068DC490840DA4948607E
:1046800008460068DA490840D749086008460068CB
:1046900020F4802008600846406820F4FE0048604E
:1046A0004FF41F0088607047CF49096821F48031BA
:1046B000CD4A11601146096821F480211160B0F5DE
:1046C000803F03D0B0F5802F0ED106E0C6490968BF
:1046D00041F48031C44A116007E0C349096841F4DC
:1046E000A021C14A116000E000BF00BF704710B5B3
:1046F00001460022002300204A11012A02D1BA4CAF
:10470000236806E0022A02D1B74C236A01E0B64CC6
:10471000636A01F01F02012494401C400CB1012087
:1047200000E0002010BD38B50020009000240025D6
:1047300000BF3120FFF7DBFF05460098401C0090CA
:104740000098B0F5A06F01D0002DF2D03120FFF716
:10475000CEFF08B1012400E00024204638BD014608
:104760000020A14A106820F0F80040EAC100106063
:104770007047A04908607047024600209A4B58686D
:1047800020F47C1042EA01031843974B58607047AD
:1047900098490866704701460020934A506820F007
:1047A00003000843506070478F48406800F00C00D9
:1047B0007047014600208C4A506820F0F000084302
:1047C0005060704701460020874A506820F4E0603E
:1047D00008435060704701460020834A506820F427
:1047E000605040EAC1005060704729B17E4A527A59
:1047F00002437D4B5A7204E07B4A527A82437A4BE1
:104800005A7270477B49D8310860704701460020D2
:10481000754A506820F440400843506070470021BA
:10482000714A20321170704A82F82010012802D09B
:1048300004280AD104E001216B4A2032117005E0FE
:104840000521694A2032117000E000BF00BF7047A7
:104850006949086070476449096A0143624A116204
:104860007047654944390860704730B5002100221F
:10487000002400235C4D6D6805F00C0121B1042972
:1048800005D0082923D105E05C4D056022E05B4D91
:1048900005601FE0544D6D6805F47012524D6D684F
:1048A00005F48034022505EB92421CB9544D554362
:1048B00005600BE04C4D6D6805F400351DB1504DA1
:1048C0005543056002E04D4D5543056002E04B4DF8
:1048D000056000BF00BF444D6D6805F0F001090997
:1048E000484D6B5C0568DD4045603F4D6D6805F4E3
:1048F000E061090A434D6B5C4568DD4085603A4DD7
:104900006D6805F46051C90A3E4D6B5C4568DD4039
:10491000C560354D6D6805F44041890B3A4D6B5CBF
:10492000C568B5FBF3F5056130BD29B12E4A526962
:1049300002432D4B5A6104E02B4A526982432A4BB1
:104940005A61704729B1284A92690243264B9A61FD
:1049500004E0254A92698243234B9A61704729B14A
:10496000214AD2690243204BDA6104E01E4AD2692F
:1049700082431D4BDA61704729B11B4AD26802435A
:10498000194BDA6004E0184AD2688243164BDA60A9
:10499000704729B1144A12690243134B1A6104E0AB
:1049A000114A12698243104B1A617047124940390B
:1049B000086070470F49C86470470B49C871704759
:1049C0000948406A40F080700749486270470146D4
:1049D0000020054A92680A400AB1012000E0002048
:1049E0007047014988727047001002400000FFF8CC
:1049F000FFFFF6FE000042428004424200127A00AD
:104A000000093D0098010020A801002010B50446CF
:104A1000FE48844208D10121C014FFF7ADFF0021F8
:104A2000E014FFF7A9FFC4E0B4F1804F08D10121E1
:104A30000846FFF7AEFF00210120FFF7AAFFB8E00C
:104A4000F348844208D101210220FFF7A2FF002190
:104A50000220FFF79EFFACE0EE48844208D101211E
:104A60000420FFF796FF00210420FFF792FFA0E04B
:104A7000E948844208D101210820FFF78AFF00217C
:104A80000820FFF786FF94E0E448844208D1012122
:104A90001020FFF77EFF00211020FFF77AFF88E04B
:104AA000DF48844208D101212020FFF772FF002156
:104AB0002020FFF76EFF7CE0DA48844208D1012114
:104AC0004014FFF759FF00216014FFF755FF70E015
:104AD000D548844209D10121C804FFF74DFF0021C8
:104AE0004FF40020FFF748FF63E0D048844209D12B
:104AF00001210805FFF740FF00214FF48010FFF768
:104B00003BFF56E0CA48844209D101214805FFF71E
:104B100033FF00214FF40010FFF72EFF49E0C54896
:104B2000844208D101214020FFF733FF00214020BB
:104B3000FFF72FFF3DE0C048844208D101218020CB
:104B4000FFF727FF00218020FFF723FF31E0BB485C
:104B5000844208D101218015FFF71BFF0021A01519
:104B6000FFF717FF25E0B648844209D10121080468
:104B7000FFF702FF00214FF48030FFF7FDFE18E041
:104B8000B048844209D101214804FFF7F5FE002115
:104B90004FF40030FFF7F0FE0BE0AB48844208D141
:104BA00001218804FFF7E8FE00214FF48020FFF781
:104BB000E3FE10BD00220288944B98420ED0994B20
:104BC00098420BD0B0F1804F08D0914B984205D05D
:104BD000904B984202D0904B984204D14FF68F737D
:104BE0001A404B881A438D4B984207D08C4B984201
:104BF00004D04FF6FF431A40CB881A4302808B88BB
:104C000083850B880385814B98420BD0854B984256
:104C100008D08B4B984205D08A4B984202D08A4BE1
:104C2000984201D10B7A038601238382704770B5C5
:104C3000002400220023058C4FF6FE7635400584C3
:104C4000028C8388048B4FF68F752C40B51E2C4048
:104C50000D882C43751E2A400D892A434D882A430E
:104C60006A4DA8420BD06F4DA84208D0744DA8429F
:104C700005D0744DA84202D0734DA84213D14FF60F
:104C8000F7752A404D892A434FF6FB752A408D88D7
:104C90002A434FF6FF652B404FF6FF552B408D8979
:104CA0002B43CD892B4383800483CD888586028462
:104CB00070BD70B5002400220023058C4FF6EF76FE
:104CC00035400584028C8388048B48F6FF752C40A0
:104CD0004FF6FF452C400D884FF6FF7606EA052576
:104CE0002C434FF6DF752A400D8906EA05152A4345
:104CF0004D8806EA05152A43444DA84202D0494D85
:104D0000A8421DD14FF67F752A404D894FF6FF7698
:104D100006EA05152A434FF6BF752A408D8806EA34
:104D200005152A434FF6FF352B404FF2FF752B40F8
:104D30008D8906EA85052B43CD8906EA85052B4337
:104D400083800483CD880587028470BD70B50024FC
:104D500000220023058C4FF6FF6635400584028C47
:104D60008388848B4FF68F752C404FF6FC752C4052
:104D70000D882C434FF6FF552A400D894FF6FF76DC
:104D800006EA05252A434D8806EA05252A431F4DD4
:104D9000A84202D0234DA8421DD14FF2FF752A40F0
:104DA0004D894FF6FF7606EA05252A434FF6FF3573
:104DB0002A408D8806EA05252A434EF6FF752B40CA
:104DC0004DF6FF752B408D8906EA05152B43CD89DD
:104DD00006EA05152B4383808483CD88858702846A
:104DE00070BD70B5002200230024058C4EF6FF76BE
:104DF00035400584038C8488828B48F6FF752A40F1
:104E00004FF6FF452A400D8820E00000002C0140AD
:104E10000004004000080040000C0040001000406A
:104E20000014004000340140004C0140005001409B
:104E30000054014000180040001C004000200040C9
:104E40000040014000440140004801404FF6FF7619
:104E500006EA05252A434DF6FF752B400D8906EA23
:104E600005352B434D8806EA05352B43FA4DA842FC
:104E700002D0FA4DA84208D14BF6FF752C408D891F
:104E80004FF6FF7606EA85152C4384808283CD8811
:104E9000A0F84050038470BD828B4FF2FF331A405C
:104EA0008283828B4FF6FF7303EA01231A438283C6
:104EB0007047F0B50C461546002200210026078CED
:104EC0004EF6FF7C07EA0C070784828B018C4FF6B5
:104ED000FF7707EA043640F6FF473A404FF6FF7780
:104EE00007EA05273A434FF6FF7707EA03373A43C5
:104EF000D94FB8420ED0D94FB8420BD0B0F1804F45
:104F000008D0D74FB84205D0D64FB84202D0D64FBE
:104F1000B84206D14DF6FF77394046F48057394301
:104F200005E047F6FF57394044F480573943828300
:104F30000184F0BD828B4FF6F3731A408283828B1B
:104F40000A4382837047F0B50C46154600220021C3
:104F50000026078C4FF6FF6C07EA0C070784828B4C
:104F6000018C4FF6FF7707EA04264FF60C773A409C
:104F70004FF6FF7707EA03172F433A43B64FB8427D
:104F80000ED0B64FB8420BD0B0F1804F08D0B44F1E
:104F9000B84205D0B34FB84202D0B34FB84206D1A1
:104FA0004FF6FF57394046F48077394305E04FF21A
:104FB000FF57394044F48077394382830184F0BD40
:104FC000028B4FF2FF331A400283028B4FF6FF73BE
:104FD00003EA01231A4302837047F0B50C461546D5
:104FE000002200210026078C4FF6EF7C07EA0C0711
:104FF0000784028B018C4FF6FF7707EA041640F610
:10500000FF473A404FF6FF7707EA03373A434FF638
:10501000FF7707EA05273A438F4FB8420ED08F4FEC
:10502000B8420BD0B0F1804F08D08D4FB84205D0B8
:105030008C4FB84202D08C4FB84206D14FF6DF7782
:10504000394046F01007394305E04FF65F773940A5
:1050500044F01007394302830184F0BD028B4FF600
:10506000F3731A400283028B0A4302837047F0B540
:105070000C46154600220021068C4FF6FE773E4076
:105080000684028B018C4FF60C7632407E1C06EAB9
:1050900003162E433243704EB0420ED06F4EB042D4
:1050A0000BD0B0F1804F08D06D4EB04205D06D4EA0
:1050B000B04202D06C4EB04206D14FF6FD76314080
:1050C00044F00106314305E04FF6F576314044F0F7
:1050D0000106314302830184F0BD70B505460C46DC
:1050E0005D4885420ED05D4885420BD0B5F1804FBA
:1050F00008D05B48854205D05A48854202D05A48BC
:10510000854200D100E000BF208850B92389A288E1
:1051100061882846FFF7ABFFE1882846FFF79EFF2E
:1051200025E0208804280AD12389A288618828469E
:10513000FFF753FFE1882846FFF742FF17E020887A
:1051400008280AD12389A28861882846FFF7FBFE38
:10515000E1882846FFF7EEFE09E02389A2886188EE
:105160002846FFF7A6FEE1882846FFF795FE70BDAA
:105170002DE9F04105460C4600260127608808B954
:10518000022600E00026A088012801D1022700E0C5
:1051900001272088A0B92389A28861882846FFF7C3
:1051A00066FFE1882846FFF759FF23893A463146D2
:1051B0002846FFF712FFE1882846FFF701FF13E0BA
:1051C0002389A28861882846FFF707FFE1882846DF
:1051D000FFF7F6FE23893A4631462846FFF747FF98
:1051E000E1882846FFF73AFFBDE8F0810A884B883E
:1051F0001A438B881A43CB881A430B891A434B896D
:105200001A438B891A43A0F8442070474FF6FF7168
:10521000818000210180C18041800172704700219E
:10522000018041808180C180018141818181C18172
:105230007047002101804180012181800021C180CF
:10524000018170470021018041808180C1800181FE
:105250004181818170470000002C014000340140F1
:105260000004004000080040000C004021B102880A
:1052700042F00102028004E002884FF6FE731A40F9
:105280000280704731B1B0F8442042F40042A0F8E7
:10529000442005E0B0F84420C2F30E02A0F84420F8
:1052A00070471AB183890B43838102E083898B4362
:1052B000838170478182704741EA0203A0F8483039
:1052C00070471AB183890B43838102E083898B4342
:1052D0008381704701894FF6F87211400181704750
:1052E0000A46002101894FF68F731940114301814D
:1052F000704730B504460D4629462046FFF7F0FFBB
:10530000208940F00700208130BD2DE9F04104469E
:105310000D4616461F46602D06D13B4601223146FA
:105320002046FFF75AFE05E03B4601223146204663
:10533000FFF79DFE29462046FFF7D2FF208940F067
:1053400007002081BDE8F08130B50C4600210189BD
:10535000C9B24FF6FF7505EA0325154325432943D6
:10536000018130BD2DE9F04105460E4617469846AD
:10537000002443463A4631462846FFF7E5FF2C898C
:105380004FF6F870044044F007044FF68F70044065
:1053900044F070042C81BDE8F081F0B504460D4660
:1053A00016461F463B46324629462046FFF7CCFFAD
:1053B000208940F480402081F0BD018582827047C1
:1053C0000A46002101884FF68F731940114301806E
:1053D0007047F0B50C4615461E46002100220023FA
:1053E0000189028B038C4FF6F877394021434FF641
:1053F000FC473A4040F201173A434FF6DD773B4015
:105400004FF6FF7707EA06172F433B4301810283DC
:105410000384F0BD0A460021018B4FF68F731940BB
:105420001143018370470A460021018B48F6FF7340
:1054300019404FF6FF7303EA0223194301837047B3
:105440000A460021818B4FF68F73194011438183E7
:1054500070470A460021818B48F6FF7319404FF6CA
:10546000FF7303EA022319438183704721B1028845
:1054700042F08002028004E002884FF67F731A40F7
:105480000280704721B1828842F00402828004E0E9
:1054900082884FF6FB731A408280704721B1828860
:1054A00042F00802828004E082884FF6F7731A40C7
:1054B0008280704721B1828842F00102828004E03C
:1054C00082884FF6FE731A40828070470A46002198
:1054D000018B4FF6F77319401143018370470A4659
:1054E0000021018B4FF2FF7319404FF6FF7303EA5F
:1054F00002231943018370470A460021818B4FF62E
:10550000F77319401143818370470A460021818B4C
:105510004FF2FF7319404FF6FF7303EA022319435A
:10552000818370470A460021018B4FF6FB731940B7
:105530001143018370470A460021018B4FF6FF3368
:1055400019404FF6FF7303EA0223194301837047A2
:105550000A460021818B4FF6FB731940114381836A
:1055600070470A460021818B4FF6FF3319404FF6F2
:10557000FF7303EA02231943818370470A4600211F
:10558000018B4FF67F7319401143018370470A4620
:105590000021018BC1F30E014FF6FF7303EA0223D2
:1055A0001943018370470A460021818B4FF67F73B0
:1055B00019401143818370470A460021818BC1F352
:1055C0000E014FF6FF7303EA0223194381837047EC
:1055D0000A460021018C4FF6FD73194011430184E6
:1055E00070470A460021018C4FF6F77319401143AA
:1055F000018470470A460021018C4FF6DF73194081
:105600004FF6FF7303EA02131943018470470A46F9
:105610000021018C4FF67F7319404FF6FF7303EAA8
:1056200002131943018470470A460021018C4FF68A
:10563000FF5319404FF6FF7303EA02231943018415
:1056400070470A460021018C4FF2FF7319404FF654
:10565000FF7303EA02231943018470470A460021BD
:10566000018C4DF6FF7319404FF6FF7303EA0233C6
:1056700019430184704730B5002301248C40A3B244
:10568000048C9C430484048C02FA01F5ADB22C43D3
:10569000048430BD30B5002304248C40A3B2048CB4
:1056A0009C430484048C02FA01F5ADB22C430484BB
:1056B00030BD70B50346002000241846183001257F
:1056C0008D40ACB21D8CA5431D8409B1082909D1B8
:1056D00000EB6100056825F070050560056815435D
:1056E00005600EE00D1FC5F34E052844056825F43E
:1056F000E045056005684FF6FF7606EA0226354369
:10570000056070BD21B1028842F00202028004E00F
:1057100002884FF6FD731A400280704721B102885B
:1057200042F00402028004E002884FF6FB731A4044
:105730000280704721B1828842F08002828004E0BA
:1057400082884FF67F731A408280704702884FF636
:10575000F7731A40028002880A43028070478288E9
:105760004FF68F731A40828082880A438280704786
:1057700002894FF6F8731A40028102890A430281B6
:10578000704702894FF67F731A40028102890A43EB
:105790000281704781847047818570478186704798
:1057A0000187704781877047A0F8401070470288D2
:1057B0004FF6FF431A40028002880A430280704776
:1057C0000146888E70470146088F70470146888FD2
:1057D00070470146B1F8400070470146888C704719
:1057E0000146088D704702460020138A0B400BB11A
:1057F000012000E000207047CA430282704730B5A4
:105800000246002000230024158A05EA0103958939
:1058100005EA010413B10CB1012000E0002030BD05
:10582000CA4302827047000010B50446FB48844218
:1058300009D101218803FFF79FF800214FF4804030
:10584000FFF79AF832E0F648844209D10121480472
:10585000FFF79FF800214FF40030FFF79AF825E09A
:10586000F048844209D101218804FFF792F8002111
:105870004FF48020FFF78DF818E0EB48844209D1FF
:105880000121C804FFF785F800214FF40020FFF73D
:1058900080F80BE0E548844208D101210805FFF7B4
:1058A00078F800214FF48010FFF773F810BD2DE950
:1058B000F04786B005460E460024A24600BFA1462A
:1058C0000027B08900B100BF2F462C8A4CF6FF702C
:1058D0000440F08804432C82AC894EF6F310044057
:1058E000B08831890843718908430443AC81AC8A8C
:1058F0004FF6FF400440B0890443AC8201A8FEF794
:10590000B4FFC648874202D1DDF810A001E0DDF8FF
:105910000CA0A88900F4004040B10AEBCA0000EBDB
:105920000A1031684900B0FBF1F807E00AEBCA0041
:1059300000EB0A1031688900B0FBF1F86420B8FB75
:10594000F0F004012009642101FB1089A88900F40A
:10595000004040B1322000EBC900B0FBF1F000F094
:105960000700044308E0322000EB09106421B0FB7B
:10597000F1F000F00F0004432C8106B0BDE8F08781
:105980004FF41651016000218180C18001810C21FA
:10599000418100218181704710B502460020108AA4
:1059A0004FF2FF0318400B884C8823438C88234315
:1059B000CC8823431843108210BD00210180418010
:1059C0008180C180704721B1828942F40052828176
:1059D00004E082894DF6FF731A4082817047F0B56A
:1059E0000346002400260025002040F66A17B9422D
:1059F00000D100BF1846C1F3421401F01F06012771
:105A000007FA06F5012C01D10C3004E0022C01D17B
:105A1000103000E014301AB107682F43076002E02D
:105A20000768AF430760F0BD1AB1838A0B438382D6
:105A300002E0838A8B4383827047028A4FF6F073B9
:105A40001A400282028A0A430282704782894FF218
:105A5000FF731A40828182890A438281704721B193
:105A6000828942F00202828104E082894FF6FD734E
:105A70001A4082817047028A4FF6DF731A40028211
:105A8000028A0A430282704721B1028A42F48042AC
:105A9000028204E0028A4BF6FF731A4002827047CA
:105AA000C1F308028280704701468888C0F308006D
:105AB0007047818941F0010181817047028BD2B228
:105AC0000283028B42EA012202837047028B02F4B6
:105AD0007F420283028B0A430283704721B1828A8C
